:03000000020100FA
:060100003165319080FE24
:10013000C0067E043146DEFCD00622C0067E0831B1
:1001400046DEFCD00622C0067E643151DEFCD006BD
:1001500022C0067E28315CDEFCD00622C0067EF47A
:10016000DEFED0062278017950E8540FC4440FF522
:1001700090313BE590540FC4F708E8540FC4440F86
:10018000F590313BE590540F27F70908B80DDA22B6
:1001900078047950E709C397400460028028D8F4B6
:1001A00080007F507954EFC399400460028020EFB3
:1001B00029C313F8E6C39555601E4005E814F9807D
:1001C000E5E804FF80E031307590F0313080163181
:1001D000307590803130800D3130E8C39450240167
:0601E000C4F5903130224D
:00000001FF
