:0409D700020B00000F
:100927001209603087FD7F147E001209933087F328
:10093700050CE50C7002050B7F017E001209B37FE1
:10094700027E001209937F807E001209B3AF0CAEBE
:090957000B1208E13087CC80FB93
:04098F007F047E0063
:10099300E4FDFCC3ED9FEC9E5015E4FBFA0BBB009A
:0F09A300010ABA01F8BB7EF50DBD00010C80E41E
:0109B2002222
:10096000E4F5A0C282C280C2817F38FE1209B312B0
:10097000098F7F061209B312098F7F0C1209B31277
:0F098000098F7F011209B312098F7F800209B31B
:0408E100AB07AA06B1
:1008E5007C007D6412088C8F087C007D0AAF03AE06
:1008F5000212088C7C007D0A12088C8D09AE02AFAD
:10090500037C007D0A12088C8D0AE5082430FF124D
:1009150009C5E5092430FF1209C5E50A2430FF029F
:0209250009C502
:1009B300C280C281D2828FA07F0A7E00120993C2B5
:0209C30082228E
:1009C500D280C281D2828FA07F0A7E00120993C293
:0209D50082227C
:03000000020800F3
:0C080000787FE4F6D8FD75810C020847F3
:10088C00BC000BBE0029EF8DF084FFADF022E4CC50
:10089C00F875F008EF2FFFEE33FEEC33FCEE9DEC19
:1008AC00984005FCEE9DFE0FD5F0E9E4CEFD22ED5F
:1008BC00F8F5F0EE8420D21CFEADF075F008EF2FA9
:1008CC00FFED33FD4007985006D5F0F222C398FD9A
:0508DC000FD5F0EA2237
:10080C00020927E493A3F8E493A34003F68001F2D2
:10081C0008DFF48029E493A3F85407240CC8C333ED
:10082C00C4540F4420C8834004F456800146F6DFBC
:10083C00E4800B01020408102040809009D7E47E6C
:10084C00019360BCA3FF543F30E509541FFEE493B1
:10085C00A360010ECF54C025E060A840B8E493A378
:10086C00FAE493A3F8E493A3C8C582C8CAC583CAA3
:10087C00F0A3C8C582C8CAC583CADFE9DEE780BE5B
:0109DB00001B
:00000001FF
