:03000000020100FA
:04010000313080FE1C
:10013000C2B0C2B1757700757800757900757B0023
:10014000E5708573F0A4F55485F053E5718574F07E
:10015000A4F55685F055E5728575F0A4F55885F03F
:10016000578039757601757A807F0379507876E704
:10017000C396400C6006D2B0D2B1801F0908DFEFF1
:10018000787979507F03E7C396400C6006C2B0D2FD
:10019000B180080908DFEFD2B0C2B122E4C3E55450
:1001A0002556F552E5533555F551E43400F550E444
:1001B000C3E5582552F552E5573551F551E4340061
:0501C000F550809F22B4
:00000001FF
